:100000000C942A000C9434000C9434000C943400AA
:100010000C9434000C9434000C9434000C94340090
:100020000C9434000C9434000C9434000C94340080
:100030000C9434000C9434000C9434000C94340070
:100040000C9434000C9434000C9434000C94340060
:100050000C94340011241FBECFE5D4E0DEBFCDBF29
:100060000E943E000C943F000C9400008FB7806803
:100070008FBF08958FB78F778FBF0895FFCFF89404
:02008000FFCFB0
:00000001FF
