:100000000C942A000C94C6000C94EF000C943C0055
:100010000C943C000C943C000C943C000C943C0070
:100020000C943C000C943C000C943C000C943C0060
:100030000C943C000C943C000C943C000C943C0050
:100040000C943C000C943C000C943C000C943C0040
:100050000C943C0011241FBECFE5D4E0DEBFCDBF21
:1000600010E0A0E6B0E001C01D92A436B107E1F7B0
:100070000E9418010C9419010C94000085B781604E
:1000800085BF85B7826085BF8BB780648BBF0895BD
:1000900085B7886085BF85B7846085BF8BB780686A
:1000A0008BBF08956130F1F4823069F0833018F429
:1000B0008130D1F505C0833049F08430A9F50CC0FA
:1000C00085B78D7F05C085B78D7F08C085B78260F5
:1000D00085BF85B78E7F25C085B7826085BF85B710
:1000E00081601FC0623001F5823069F0833018F4FE
:1000F0008130D1F405C0833049F08430A9F40CC0BC
:1001000085B7877F05C085B7877F08C085B78860BA
:1001100085BF85B78B7F05C085B7886085BF85B7EC
:10012000846085BF80E0089581E00895813051F4B6
:10013000613019F48BB7806410C0623089F48BB7DA
:100140008F7B0BC0823061F4613019F48BB780680B
:1001500004C0623029F48BB78F778BBF80E008959D
:1001600081E00895009711F482E008959093610072
:100170008093600080E00895009711F482E0089574
:10018000909363008093620080E008951F920F9225
:100190000FB60F9211242F933F934F935F936F935A
:1001A0007F938F939F93AF93BF93EF93FF93E091D0
:1001B0006000F0916100309709F00995FF91EF918F
:1001C000BF91AF919F918F917F916F915F914F916F
:1001D0003F912F910F900FBE0F901F9018951F9277
:1001E0000F920FB60F9211242F933F934F935F936B
:1001F0006F937F938F939F93AF93BF93EF93FF93EF
:10020000E0916200F0916300309709F00995FF9149
:10021000EF91BF91AF919F918F917F916F915F917E
:100220004F913F912F910F900FBE0F901F901895F7
:06023000FFCFF894FFCFA0
:00000001FF
